{
  "contracts/TenderLedger.sol": {
    "TenderLedger": {
      "abi": [
        {
          "anonymous": false,
          "inputs": [
            {
              "indexed": false,
              "internalType": "string",
              "name": "tenderId",
              "type": "string"
            },
            {
              "indexed": false,
              "internalType": "string",
              "name": "contractorName",
              "type": "string"
            },
            {
              "indexed": false,
              "internalType": "uint256",
              "name": "bidAmount",
              "type": "uint256"
            },
            {
              "indexed": false,
              "internalType": "uint256",
              "name": "timestamp",
              "type": "uint256"
            }
          ],
          "name": "TenderAwarded",
          "type": "event"
        },
        {
          "inputs": [
            {
              "internalType": "uint256",
              "name": "",
              "type": "uint256"
            }
          ],
          "name": "awards",
          "outputs": [
            {
              "internalType": "string",
              "name": "tenderId",
              "type": "string"
            },
            {
              "internalType": "string",
              "name": "contractorName",
              "type": "string"
            },
            {
              "internalType": "uint256",
              "name": "bidAmount",
              "type": "uint256"
            },
            {
              "internalType": "uint256",
              "name": "timestamp",
              "type": "uint256"
            }
          ],
          "stateMutability": "view",
          "type": "function"
        },
        {
          "inputs": [],
          "name": "getAwardCount",
          "outputs": [
            {
              "internalType": "uint256",
              "name": "",
              "type": "uint256"
            }
          ],
          "stateMutability": "view",
          "type": "function"
        },
        {
          "inputs": [
            {
              "internalType": "string",
              "name": "_tenderId",
              "type": "string"
            },
            {
              "internalType": "string",
              "name": "_contractorName",
              "type": "string"
            },
            {
              "internalType": "uint256",
              "name": "_bidAmount",
              "type": "uint256"
            }
          ],
          "name": "recordWinner",
          "outputs": [],
          "stateMutability": "nonpayable",
          "type": "function"
        }
      ],
      "evm": {
        "bytecode": {
          "linkReferences": {},
          "object": "608060405234801561001057600080fd5b50610937806100206000396000f3fe608060405234801561001057600080fd5b50600436106100415760003560e01c8063eb4c099114610046578063f7a1192c14610064578063fc5a5b6314610080575b600080fd5b61004e6100b3565b60405161005b91906102f8565b60405180910390f35b61007e60048036038101906100799190610499565b6100bf565b005b61009a60048036038101906100959190610524565b61018f565b6040516100aa94939291906105d0565b60405180910390f35b60008080549050905090565b600060405180608001604052808581526020018481526020018381526020014281525090806001815401808255809150506001900390600052602060002090600402016000909190919091506000820151816000019081610120919061082f565b506020820151816001019081610136919061082f565b50604082015181600201556060820151816003015550507ff38d75083fa60dda7be6f1429058ba272552ffe9306b69b055b8ea9bc66a636a8383834260405161018294939291906105d0565b60405180910390a1505050565b6000818154811061019f57600080fd5b90600052602060002090600402016000915090508060000180546101c290610652565b80601f01602080910402602001604051908101604052809291908181526020018280546101ee90610652565b801561023b5780601f106102105761010080835404028352916020019161023b565b820191906000526020600020905b81548152906001019060200180831161021e57829003601f168201915b50505050509080600101805461025090610652565b80601f016020809104026020016040519081016040528092919081815260200182805461027c90610652565b80156102c95780601f1061029e576101008083540402835291602001916102c9565b820191906000526020600020905b8154815290600101906020018083116102ac57829003601f168201915b5050505050908060020154908060030154905084565b6000819050919050565b6102f2816102df565b82525050565b600060208201905061030d60008301846102e9565b92915050565b6000604051905090565b600080fd5b600080fd5b600080fd5b600080fd5b6000601f19601f8301169050919050565b7f4e487b7100000000000000000000000000000000000000000000000000000000600052604160045260246000fd5b61037a82610331565b810181811067ffffffffffffffff8211171561039957610398610342565b5b80604052505050565b60006103ac610313565b90506103b88282610371565b919050565b600067ffffffffffffffff8211156103d8576103d7610342565b5b6103e182610331565b9050602081019050919050565b82818337600083830152505050565b600061041061040b846103bd565b6103a2565b90508281526020810184848401111561042c5761042b61032c565b5b6104378482856103ee565b509392505050565b600082601f83011261045457610453610327565b5b81356104648482602086016103fd565b91505092915050565b610476816102df565b811461048157600080fd5b50565b6000813590506104938161046d565b92915050565b6000806000606084860312156104b2576104b161031d565b5b600084013567ffffffffffffffff8111156104d0576104cf610322565b5b6104dc8682870161043f565b935050602084013567ffffffffffffffff8111156104fd576104fc610322565b5b6105098682870161043f565b925050604061051a86828701610484565b9150509250925092565b60006020828403121561053a5761053961031d565b5b600061054884828501610484565b91505092915050565b600081519050919050565b600082825260208201905092915050565b60005b8381101561058b578082015181840152602081019050610570565b60008484015250505050565b60006105a282610551565b6105ac818561055c565b93506105bc81856020860161056d565b6105c581610331565b840191505092915050565b600060808201905081810360008301526105ea8187610597565b905081810360208301526105fe8186610597565b905061060d60408301856102e9565b61061a60608301846102e9565b95945050505050565b7f4e487b7100000000000000000000000000000000000000000000000000000000600052602260045260246000fd5b6000600282049050600182168061066a57607f821691505b60208210810361067d5761067c610623565b5b50919050565b60008190508160005260206000209050919050565b60006020601f8301049050919050565b600082821b905092915050565b6000600883026106e57fffffffffffffffffffffffffffffffffffffffffffffffffffffffffffffffff826106a8565b6106ef86836106a8565b95508019841693508086168417925050509392505050565b6000819050919050565b600061072c610727610722846102df565b610707565b6102df565b9050919050565b6000819050919050565b61074683610711565b61075a61075282610733565b8484546106b5565b825550505050565b600090565b61076f610762565b61077a81848461073d565b505050565b5b8181101561079e57610793600082610767565b600181019050610780565b5050565b601f8211156107e3576107b481610683565b6107bd84610698565b810160208510156107cc578190505b6107e06107d885610698565b83018261077f565b50505b505050565b600082821c905092915050565b6000610806600019846008026107e8565b1980831691505092915050565b600061081f83836107f5565b9150826002028217905092915050565b61083882610551565b67ffffffffffffffff81111561085157610850610342565b5b61085b8254610652565b6108668282856107a2565b600060209050601f8311600181146108995760008415610887578287015190505b6108918582610813565b8655506108f9565b601f1984166108a786610683565b60005b828110156108cf578489015182556001820191506020850194506020810190506108aa565b868310156108ec57848901516108e8601f8916826107f5565b8355505b6001600288020188555050505b50505050505056fea2646970667358221220df61b579d1806e0d56a74c75f106ed6fb1e46adc3d695ee26b08f93e65dbeb1564736f6c63430008180033",
          "opcodes": "PUSH1 0x80 PUSH1 0x40 MSTORE CALLVALUE DUP1 ISZERO PUSH2 0x10 JUMPI PUSH1 0x0 DUP1 REVERT JUMPDEST POP PUSH2 0x937 DUP1 PUSH2 0x20 PUSH1 0x0 CODECOPY PUSH1 0x0 RETURN INVALID PUSH1 0x80 PUSH1 0x40 MSTORE CALLVALUE DUP1 ISZERO PUSH2 0x10 JUMPI PUSH1 0x0 DUP1 REVERT JUMPDEST POP PUSH1 0x4 CALLDATASIZE LT PUSH2 0x41 JUMPI PUSH1 0x0 CALLDATALOAD PUSH1 0xE0 SHR DUP1 PUSH4 0xEB4C0991 EQ PUSH2 0x46 JUMPI DUP1 PUSH4 0xF7A1192C EQ PUSH2 0x64 JUMPI DUP1 PUSH4 0xFC5A5B63 EQ PUSH2 0x80 JUMPI JUMPDEST PUSH1 0x0 DUP1 REVERT JUMPDEST PUSH2 0x4E PUSH2 0xB3 JUMP JUMPDEST PUSH1 0x40 MLOAD PUSH2 0x5B SWAP2 SWAP1 PUSH2 0x2F8 JUMP JUMPDEST PUSH1 0x40 MLOAD DUP1 SWAP2 SUB SWAP1 RETURN JUMPDEST PUSH2 0x7E PUSH1 0x4 DUP1 CALLDATASIZE SUB DUP2 ADD SWAP1 PUSH2 0x79 SWAP2 SWAP1 PUSH2 0x499 JUMP JUMPDEST PUSH2 0xBF JUMP JUMPDEST STOP JUMPDEST PUSH2 0x9A PUSH1 0x4 DUP1 CALLDATASIZE SUB DUP2 ADD SWAP1 PUSH2 0x95 SWAP2 SWAP1 PUSH2 0x524 JUMP JUMPDEST PUSH2 0x18F JUMP JUMPDEST PUSH1 0x40 MLOAD PUSH2 0xAA SWAP5 SWAP4 SWAP3 SWAP2 SWAP1 PUSH2 0x5D0 JUMP JUMPDEST PUSH1 0x40 MLOAD DUP1 SWAP2 SUB SWAP1 RETURN JUMPDEST PUSH1 0x0 DUP1 DUP1 SLOAD SWAP1 POP SWAP1 POP SWAP1 JUMP JUMPDEST PUSH1 0x0 PUSH1 0x40 MLOAD DUP1 PUSH1 0x80 ADD PUSH1 0x40 MSTORE DUP1 DUP6 DUP2 MSTORE PUSH1 0x20 ADD DUP5 DUP2 MSTORE PUSH1 0x20 ADD DUP4 DUP2 MSTORE PUSH1 0x20 ADD TIMESTAMP DUP2 MSTORE POP SWAP1 DUP1 PUSH1 0x1 DUP2 SLOAD ADD DUP1 DUP3 SSTORE DUP1 SWAP2 POP POP PUSH1 0x1 SWAP1 SUB SWAP1 PUSH1 0x0 MSTORE PUSH1 0x20 PUSH1 0x0 KECCAK256 SWAP1 PUSH1 0x4 MUL ADD PUSH1 0x0 SWAP1 SWAP2 SWAP1 SWAP2 SWAP1 SWAP2 POP PUSH1 0x0 DUP3 ADD MLOAD DUP2 PUSH1 0x0 ADD SWAP1 DUP2 PUSH2 0x120 SWAP2 SWAP1 PUSH2 0x82F JUMP JUMPDEST POP PUSH1 0x20 DUP3 ADD MLOAD DUP2 PUSH1 0x1 ADD SWAP1 DUP2 PUSH2 0x136 SWAP2 SWAP1 PUSH2 0x82F JUMP JUMPDEST POP PUSH1 0x40 DUP3 ADD MLOAD DUP2 PUSH1 0x2 ADD SSTORE PUSH1 0x60 DUP3 ADD MLOAD DUP2 PUSH1 0x3 ADD SSTORE POP POP PUSH32 0xF38D75083FA60DDA7BE6F1429058BA272552FFE9306B69B055B8EA9BC66A636A DUP4 DUP4 DUP4 TIMESTAMP PUSH1 0x40 MLOAD PUSH2 0x182 SWAP5 SWAP4 SWAP3 SWAP2 SWAP1 PUSH2 0x5D0 JUMP JUMPDEST PUSH1 0x40 MLOAD DUP1 SWAP2 SUB SWAP1 LOG1 POP POP POP JUMP JUMPDEST PUSH1 0x0 DUP2 DUP2 SLOAD DUP2 LT PUSH2 0x19F JUMPI PUSH1 0x0 DUP1 REVERT JUMPDEST SWAP1 PUSH1 0x0 MSTORE PUSH1 0x20 PUSH1 0x0 KECCAK256 SWAP1 PUSH1 0x4 MUL ADD PUSH1 0x0 SWAP2 POP SWAP1 POP DUP1 PUSH1 0x0 ADD DUP1 SLOAD PUSH2 0x1C2 SWAP1 PUSH2 0x652 JUMP JUMPDEST DUP1 PUSH1 0x1F ADD PUSH1 0x20 DUP1 SWAP2 DIV MUL PUSH1 0x20 ADD PUSH1 0x40 MLOAD SWAP1 DUP2 ADD PUSH1 0x40 MSTORE DUP1 SWAP3 SWAP2 SWAP1 DUP2 DUP2 MSTORE PUSH1 0x20 ADD DUP3 DUP1 SLOAD PUSH2 0x1EE SWAP1 PUSH2 0x652 JUMP JUMPDEST DUP1 ISZERO PUSH2 0x23B JUMPI DUP1 PUSH1 0x1F LT PUSH2 0x210 JUMPI PUSH2 0x100 DUP1 DUP4 SLOAD DIV MUL DUP4 MSTORE SWAP2 PUSH1 0x20 ADD SWAP2 PUSH2 0x23B JUMP JUMPDEST DUP3 ADD SWAP2 SWAP1 PUSH1 0x0 MSTORE PUSH1 0x20 PUSH1 0x0 KECCAK256 SWAP1 JUMPDEST DUP2 SLOAD DUP2 MSTORE SWAP1 PUSH1 0x1 ADD SWAP1 PUSH1 0x20 ADD DUP1 DUP4 GT PUSH2 0x21E JUMPI DUP3 SWAP1 SUB PUSH1 0x1F AND DUP3 ADD SWAP2 JUMPDEST POP POP POP POP POP SWAP1 DUP1 PUSH1 0x1 ADD DUP1 SLOAD PUSH2 0x250 SWAP1 PUSH2 0x652 JUMP JUMPDEST DUP1 PUSH1 0x1F ADD PUSH1 0x20 DUP1 SWAP2 DIV MUL PUSH1 0x20 ADD PUSH1 0x40 MLOAD SWAP1 DUP2 ADD PUSH1 0x40 MSTORE DUP1 SWAP3 SWAP2 SWAP1 DUP2 DUP2 MSTORE PUSH1 0x20 ADD DUP3 DUP1 SLOAD PUSH2 0x27C SWAP1 PUSH2 0x652 JUMP JUMPDEST DUP1 ISZERO PUSH2 0x2C9 JUMPI DUP1 PUSH1 0x1F LT PUSH2 0x29E JUMPI PUSH2 0x100 DUP1 DUP4 SLOAD DIV MUL DUP4 MSTORE SWAP2 PUSH1 0x20 ADD SWAP2 PUSH2 0x2C9 JUMP JUMPDEST DUP3 ADD SWAP2 SWAP1 PUSH1 0x0 MSTORE PUSH1 0x20 PUSH1 0x0 KECCAK256 SWAP1 JUMPDEST DUP2 SLOAD DUP2 MSTORE SWAP1 PUSH1 0x1 ADD SWAP1 PUSH1 0x20 ADD DUP1 DUP4 GT PUSH2 0x2AC JUMPI DUP3 SWAP1 SUB PUSH1 0x1F AND DUP3 ADD SWAP2 JUMPDEST POP POP POP POP POP SWAP1 DUP1 PUSH1 0x2 ADD SLOAD SWAP1 DUP1 PUSH1 0x3 ADD SLOAD SWAP1 POP DUP5 JUMP JUMPDEST PUSH1 0x0 DUP2 SWAP1 POP SWAP2 SWAP1 POP JUMP JUMPDEST PUSH2 0x2F2 DUP2 PUSH2 0x2DF JUMP JUMPDEST DUP3 MSTORE POP POP JUMP JUMPDEST PUSH1 0x0 PUSH1 0x20 DUP3 ADD SWAP1 POP PUSH2 0x30D PUSH1 0x0 DUP4 ADD DUP5 PUSH2 0x2E9 JUMP JUMPDEST SWAP3 SWAP2 POP POP JUMP JUMPDEST PUSH1 0x0 PUSH1 0x40 MLOAD SWAP1 POP SWAP1 JUMP JUMPDEST PUSH1 0x0 DUP1 REVERT JUMPDEST PUSH1 0x0 DUP1 REVERT JUMPDEST PUSH1 0x0 DUP1 REVERT JUMPDEST PUSH1 0x0 DUP1 REVERT JUMPDEST PUSH1 0x0 PUSH1 0x1F NOT PUSH1 0x1F DUP4 ADD AND SWAP1 POP SWAP2 SWAP1 POP JUMP JUMPDEST PUSH32 0x4E487B7100000000000000000000000000000000000000000000000000000000 PUSH1 0x0 MSTORE PUSH1 0x41 PUSH1 0x4 MSTORE PUSH1 0x24 PUSH1 0x0 REVERT JUMPDEST PUSH2 0x37A DUP3 PUSH2 0x331 JUMP JUMPDEST DUP2 ADD DUP2 DUP2 LT PUSH8 0xFFFFFFFFFFFFFFFF DUP3 GT OR ISZERO PUSH2 0x399 JUMPI PUSH2 0x398 PUSH2 0x342 JUMP JUMPDEST JUMPDEST DUP1 PUSH1 0x40 MSTORE POP POP POP JUMP JUMPDEST PUSH1 0x0 PUSH2 0x3AC PUSH2 0x313 JUMP JUMPDEST SWAP1 POP PUSH2 0x3B8 DUP3 DUP3 PUSH2 0x371 JUMP JUMPDEST SWAP2 SWAP1 POP JUMP JUMPDEST PUSH1 0x0 PUSH8 0xFFFFFFFFFFFFFFFF DUP3 GT ISZERO PUSH2 0x3D8 JUMPI PUSH2 0x3D7 PUSH2 0x342 JUMP JUMPDEST JUMPDEST PUSH2 0x3E1 DUP3 PUSH2 0x331 JUMP JUMPDEST SWAP1 POP PUSH1 0x20 DUP2 ADD SWAP1 POP SWAP2 SWAP1 POP JUMP JUMPDEST DUP3 DUP2 DUP4 CALLDATACOPY PUSH1 0x0 DUP4 DUP4 ADD MSTORE POP POP POP JUMP JUMPDEST PUSH1 0x0 PUSH2 0x410 PUSH2 0x40B DUP5 PUSH2 0x3BD JUMP JUMPDEST PUSH2 0x3A2 JUMP JUMPDEST SWAP1 POP DUP3 DUP2 MSTORE PUSH1 0x20 DUP2 ADD DUP5 DUP5 DUP5 ADD GT ISZERO PUSH2 0x42C JUMPI PUSH2 0x42B PUSH2 0x32C JUMP JUMPDEST JUMPDEST PUSH2 0x437 DUP5 DUP3 DUP6 PUSH2 0x3EE JUMP JUMPDEST POP SWAP4 SWAP3 POP POP POP JUMP JUMPDEST PUSH1 0x0 DUP3 PUSH1 0x1F DUP4 ADD SLT PUSH2 0x454 JUMPI PUSH2 0x453 PUSH2 0x327 JUMP JUMPDEST JUMPDEST DUP2 CALLDATALOAD PUSH2 0x464 DUP5 DUP3 PUSH1 0x20 DUP7 ADD PUSH2 0x3FD JUMP JUMPDEST SWAP2 POP POP SWAP3 SWAP2 POP POP JUMP JUMPDEST PUSH2 0x476 DUP2 PUSH2 0x2DF JUMP JUMPDEST DUP2 EQ PUSH2 0x481 JUMPI PUSH1 0x0 DUP1 REVERT JUMPDEST POP JUMP JUMPDEST PUSH1 0x0 DUP2 CALLDATALOAD SWAP1 POP PUSH2 0x493 DUP2 PUSH2 0x46D JUMP JUMPDEST SWAP3 SWAP2 POP POP JUMP JUMPDEST PUSH1 0x0 DUP1 PUSH1 0x0 PUSH1 0x60 DUP5 DUP7 SUB SLT ISZERO PUSH2 0x4B2 JUMPI PUSH2 0x4B1 PUSH2 0x31D JUMP JUMPDEST JUMPDEST PUSH1 0x0 DUP5 ADD CALLDATALOAD PUSH8 0xFFFFFFFFFFFFFFFF DUP2 GT ISZERO PUSH2 0x4D0 JUMPI PUSH2 0x4CF PUSH2 0x322 JUMP JUMPDEST JUMPDEST PUSH2 0x4DC DUP7 DUP3 DUP8 ADD PUSH2 0x43F JUMP JUMPDEST SWAP4 POP POP PUSH1 0x20 DUP5 ADD CALLDATALOAD PUSH8 0xFFFFFFFFFFFFFFFF DUP2 GT ISZERO PUSH2 0x4FD JUMPI PUSH2 0x4FC PUSH2 0x322 JUMP JUMPDEST JUMPDEST PUSH2 0x509 DUP7 DUP3 DUP8 ADD PUSH2 0x43F JUMP JUMPDEST SWAP3 POP POP PUSH1 0x40 PUSH2 0x51A DUP7 DUP3 DUP8 ADD PUSH2 0x484 JUMP JUMPDEST SWAP2 POP POP SWAP3 POP SWAP3 POP SWAP3 JUMP JUMPDEST PUSH1 0x0 PUSH1 0x20 DUP3 DUP5 SUB SLT ISZERO PUSH2 0x53A JUMPI PUSH2 0x539 PUSH2 0x31D JUMP JUMPDEST JUMPDEST PUSH1 0x0 PUSH2 0x548 DUP5 DUP3 DUP6 ADD PUSH2 0x484 JUMP JUMPDEST SWAP2 POP POP SWAP3 SWAP2 POP POP JUMP JUMPDEST PUSH1 0x0 DUP2 MLOAD SWAP1 POP SWAP2 SWAP1 POP JUMP JUMPDEST PUSH1 0x0 DUP3 DUP3 MSTORE PUSH1 0x20 DUP3 ADD SWAP1 POP SWAP3 SWAP2 POP POP JUMP JUMPDEST PUSH1 0x0 JUMPDEST DUP4 DUP2 LT ISZERO PUSH2 0x58B JUMPI DUP1 DUP3 ADD MLOAD DUP2 DUP5 ADD MSTORE PUSH1 0x20 DUP2 ADD SWAP1 POP PUSH2 0x570 JUMP JUMPDEST PUSH1 0x0 DUP5 DUP5 ADD MSTORE POP POP POP POP JUMP JUMPDEST PUSH1 0x0 PUSH2 0x5A2 DUP3 PUSH2 0x551 JUMP JUMPDEST PUSH2 0x5AC DUP2 DUP6 PUSH2 0x55C JUMP JUMPDEST SWAP4 POP PUSH2 0x5BC DUP2 DUP6 PUSH1 0x20 DUP7 ADD PUSH2 0x56D JUMP JUMPDEST PUSH2 0x5C5 DUP2 PUSH2 0x331 JUMP JUMPDEST DUP5 ADD SWAP2 POP POP SWAP3 SWAP2 POP POP JUMP JUMPDEST PUSH1 0x0 PUSH1 0x80 DUP3 ADD SWAP1 POP DUP2 DUP2 SUB PUSH1 0x0 DUP4 ADD MSTORE PUSH2 0x5EA DUP2 DUP8 PUSH2 0x597 JUMP JUMPDEST SWAP1 POP DUP2 DUP2 SUB PUSH1 0x20 DUP4 ADD MSTORE PUSH2 0x5FE DUP2 DUP7 PUSH2 0x597 JUMP JUMPDEST SWAP1 POP PUSH2 0x60D PUSH1 0x40 DUP4 ADD DUP6 PUSH2 0x2E9 JUMP JUMPDEST PUSH2 0x61A PUSH1 0x60 DUP4 ADD DUP5 PUSH2 0x2E9 JUMP JUMPDEST SWAP6 SWAP5 POP POP POP POP POP JUMP JUMPDEST PUSH32 0x4E487B7100000000000000000000000000000000000000000000000000000000 PUSH1 0x0 MSTORE PUSH1 0x22 PUSH1 0x4 MSTORE PUSH1 0x24 PUSH1 0x0 REVERT JUMPDEST PUSH1 0x0 PUSH1 0x2 DUP3 DIV SWAP1 POP PUSH1 0x1 DUP3 AND DUP1 PUSH2 0x66A JUMPI PUSH1 0x7F DUP3 AND SWAP2 POP JUMPDEST PUSH1 0x20 DUP3 LT DUP2 SUB PUSH2 0x67D JUMPI PUSH2 0x67C PUSH2 0x623 JUMP JUMPDEST JUMPDEST POP SWAP2 SWAP1 POP JUMP JUMPDEST PUSH1 0x0 DUP2 SWAP1 POP DUP2 PUSH1 0x0 MSTORE PUSH1 0x20 PUSH1 0x0 KECCAK256 SWAP1 POP SWAP2 SWAP1 POP JUMP JUMPDEST PUSH1 0x0 PUSH1 0x20 PUSH1 0x1F DUP4 ADD DIV SWAP1 POP SWAP2 SWAP1 POP JUMP JUMPDEST PUSH1 0x0 DUP3 DUP3 SHL SWAP1 POP SWAP3 SWAP2 POP POP JUMP JUMPDEST PUSH1 0x0 PUSH1 0x8 DUP4 MUL PUSH2 0x6E5 PUSH32 0xFFFFFFFFFFFFFFFFFFFFFFFFFFFFFFFFFFFFFFFFFFFFFFFFFFFFFFFFFFFFFFFF DUP3 PUSH2 0x6A8 JUMP JUMPDEST PUSH2 0x6EF DUP7 DUP4 PUSH2 0x6A8 JUMP JUMPDEST SWAP6 POP DUP1 NOT DUP5 AND SWAP4 POP DUP1 DUP7 AND DUP5 OR SWAP3 POP POP POP SWAP4 SWAP3 POP POP POP JUMP JUMPDEST PUSH1 0x0 DUP2 SWAP1 POP SWAP2 SWAP1 POP JUMP JUMPDEST PUSH1 0x0 PUSH2 0x72C PUSH2 0x727 PUSH2 0x722 DUP5 PUSH2 0x2DF JUMP JUMPDEST PUSH2 0x707 JUMP JUMPDEST PUSH2 0x2DF JUMP JUMPDEST SWAP1 POP SWAP2 SWAP1 POP JUMP JUMPDEST PUSH1 0x0 DUP2 SWAP1 POP SWAP2 SWAP1 POP JUMP JUMPDEST PUSH2 0x746 DUP4 PUSH2 0x711 JUMP JUMPDEST PUSH2 0x75A PUSH2 0x752 DUP3 PUSH2 0x733 JUMP JUMPDEST DUP5 DUP5 SLOAD PUSH2 0x6B5 JUMP JUMPDEST DUP3 SSTORE POP POP POP POP JUMP JUMPDEST PUSH1 0x0 SWAP1 JUMP JUMPDEST PUSH2 0x76F PUSH2 0x762 JUMP JUMPDEST PUSH2 0x77A DUP2 DUP5 DUP5 PUSH2 0x73D JUMP JUMPDEST POP POP POP JUMP JUMPDEST JUMPDEST DUP2 DUP2 LT ISZERO PUSH2 0x79E JUMPI PUSH2 0x793 PUSH1 0x0 DUP3 PUSH2 0x767 JUMP JUMPDEST PUSH1 0x1 DUP2 ADD SWAP1 POP PUSH2 0x780 JUMP JUMPDEST POP POP JUMP JUMPDEST PUSH1 0x1F DUP3 GT ISZERO PUSH2 0x7E3 JUMPI PUSH2 0x7B4 DUP2 PUSH2 0x683 JUMP JUMPDEST PUSH2 0x7BD DUP5 PUSH2 0x698 JUMP JUMPDEST DUP2 ADD PUSH1 0x20 DUP6 LT ISZERO PUSH2 0x7CC JUMPI DUP2 SWAP1 POP JUMPDEST PUSH2 0x7E0 PUSH2 0x7D8 DUP6 PUSH2 0x698 JUMP JUMPDEST DUP4 ADD DUP3 PUSH2 0x77F JUMP JUMPDEST POP POP JUMPDEST POP POP POP JUMP JUMPDEST PUSH1 0x0 DUP3 DUP3 SHR SWAP1 POP SWAP3 SWAP2 POP POP JUMP JUMPDEST PUSH1 0x0 PUSH2 0x806 PUSH1 0x0 NOT DUP5 PUSH1 0x8 MUL PUSH2 0x7E8 JUMP JUMPDEST NOT DUP1 DUP4 AND SWAP2 POP POP SWAP3 SWAP2 POP POP JUMP JUMPDEST PUSH1 0x0 PUSH2 0x81F DUP4 DUP4 PUSH2 0x7F5 JUMP JUMPDEST SWAP2 POP DUP3 PUSH1 0x2 MUL DUP3 OR SWAP1 POP SWAP3 SWAP2 POP POP JUMP JUMPDEST PUSH2 0x838 DUP3 PUSH2 0x551 JUMP JUMPDEST PUSH8 0xFFFFFFFFFFFFFFFF DUP2 GT ISZERO PUSH2 0x851 JUMPI PUSH2 0x850 PUSH2 0x342 JUMP JUMPDEST JUMPDEST PUSH2 0x85B DUP3 SLOAD PUSH2 0x652 JUMP JUMPDEST PUSH2 0x866 DUP3 DUP3 DUP6 PUSH2 0x7A2 JUMP JUMPDEST PUSH1 0x0 PUSH1 0x20 SWAP1 POP PUSH1 0x1F DUP4 GT PUSH1 0x1 DUP2 EQ PUSH2 0x899 JUMPI PUSH1 0x0 DUP5 ISZERO PUSH2 0x887 JUMPI DUP3 DUP8 ADD MLOAD SWAP1 POP JUMPDEST PUSH2 0x891 DUP6 DUP3 PUSH2 0x813 JUMP JUMPDEST DUP7 SSTORE POP PUSH2 0x8F9 JUMP JUMPDEST PUSH1 0x1F NOT DUP5 AND PUSH2 0x8A7 DUP7 PUSH2 0x683 JUMP JUMPDEST PUSH1 0x0 JUMPDEST DUP3 DUP2 LT ISZERO PUSH2 0x8CF JUMPI DUP5 DUP10 ADD MLOAD DUP3 SSTORE PUSH1 0x1 DUP3 ADD SWAP2 POP PUSH1 0x20 DUP6 ADD SWAP5 POP PUSH1 0x20 DUP2 ADD SWAP1 POP PUSH2 0x8AA JUMP JUMPDEST DUP7 DUP4 LT ISZERO PUSH2 0x8EC JUMPI DUP5 DUP10 ADD MLOAD PUSH2 0x8E8 PUSH1 0x1F DUP10 AND DUP3 PUSH2 0x7F5 JUMP JUMPDEST DUP4 SSTORE POP JUMPDEST PUSH1 0x1 PUSH1 0x2 DUP9 MUL ADD DUP9 SSTORE POP POP POP JUMPDEST POP POP POP POP POP POP JUMP INVALID LOG2 PUSH5 0x6970667358 0x22 SLT KECCAK256 0xDF PUSH2 0xB579 0xD1 DUP1 PUSH15 0xD56A74C75F106ED6FB1E46ADC3D69 MCOPY 0xE2 PUSH12 0x8F93E65DBEB1564736F6C63 NUMBER STOP ADDMOD XOR STOP CALLER "
        },
        "methodIdentifiers": {
          "awards(uint256)": "fc5a5b63",
          "getAwardCount()": "eb4c0991",
          "recordWinner(string,string,uint256)": "f7a1192c"
        }
      }
    }
  }
}