{
  "_format": "hh-sol-artifact-1",
  "contractName": "TenderLedger",
  "sourceName": "contracts/TenderLedger.sol",
  "abi": [
    {
      "anonymous": false,
      "inputs": [
        {
          "indexed": false,
          "internalType": "string",
          "name": "tenderId",
          "type": "string"
        },
        {
          "indexed": false,
          "internalType": "string",
          "name": "contractorName",
          "type": "string"
        },
        {
          "indexed": false,
          "internalType": "uint256",
          "name": "bidAmount",
          "type": "uint256"
        },
        {
          "indexed": false,
          "internalType": "uint256",
          "name": "timestamp",
          "type": "uint256"
        }
      ],
      "name": "TenderAwarded",
      "type": "event"
    },
    {
      "inputs": [
        {
          "internalType": "uint256",
          "name": "",
          "type": "uint256"
        }
      ],
      "name": "awards",
      "outputs": [
        {
          "internalType": "string",
          "name": "tenderId",
          "type": "string"
        },
        {
          "internalType": "string",
          "name": "contractorName",
          "type": "string"
        },
        {
          "internalType": "uint256",
          "name": "bidAmount",
          "type": "uint256"
        },
        {
          "internalType": "uint256",
          "name": "timestamp",
          "type": "uint256"
        }
      ],
      "stateMutability": "view",
      "type": "function"
    },
    {
      "inputs": [],
      "name": "getAwardCount",
      "outputs": [
        {
          "internalType": "uint256",
          "name": "",
          "type": "uint256"
        }
      ],
      "stateMutability": "view",
      "type": "function"
    },
    {
      "inputs": [
        {
          "internalType": "string",
          "name": "_tenderId",
          "type": "string"
        },
        {
          "internalType": "string",
          "name": "_contractorName",
          "type": "string"
        },
        {
          "internalType": "uint256",
          "name": "_bidAmount",
          "type": "uint256"
        }
      ],
      "name": "recordWinner",
      "outputs": [],
      "stateMutability": "nonpayable",
      "type": "function"
    }
  ],
  "bytecode": "0x608060405234801561001057600080fd5b50610937806100206000396000f3fe608060405234801561001057600080fd5b50600436106100415760003560e01c8063eb4c099114610046578063f7a1192c14610064578063fc5a5b6314610080575b600080fd5b61004e6100b3565b60405161005b91906102f8565b60405180910390f35b61007e60048036038101906100799190610499565b6100bf565b005b61009a60048036038101906100959190610524565b61018f565b6040516100aa94939291906105d0565b60405180910390f35b60008080549050905090565b600060405180608001604052808581526020018481526020018381526020014281525090806001815401808255809150506001900390600052602060002090600402016000909190919091506000820151816000019081610120919061082f565b506020820151816001019081610136919061082f565b50604082015181600201556060820151816003015550507ff38d75083fa60dda7be6f1429058ba272552ffe9306b69b055b8ea9bc66a636a8383834260405161018294939291906105d0565b60405180910390a1505050565b6000818154811061019f57600080fd5b90600052602060002090600402016000915090508060000180546101c290610652565b80601f01602080910402602001604051908101604052809291908181526020018280546101ee90610652565b801561023b5780601f106102105761010080835404028352916020019161023b565b820191906000526020600020905b81548152906001019060200180831161021e57829003601f168201915b50505050509080600101805461025090610652565b80601f016020809104026020016040519081016040528092919081815260200182805461027c90610652565b80156102c95780601f1061029e576101008083540402835291602001916102c9565b820191906000526020600020905b8154815290600101906020018083116102ac57829003601f168201915b5050505050908060020154908060030154905084565b6000819050919050565b6102f2816102df565b82525050565b600060208201905061030d60008301846102e9565b92915050565b6000604051905090565b600080fd5b600080fd5b600080fd5b600080fd5b6000601f19601f8301169050919050565b7f4e487b7100000000000000000000000000000000000000000000000000000000600052604160045260246000fd5b61037a82610331565b810181811067ffffffffffffffff8211171561039957610398610342565b5b80604052505050565b60006103ac610313565b90506103b88282610371565b919050565b600067ffffffffffffffff8211156103d8576103d7610342565b5b6103e182610331565b9050602081019050919050565b82818337600083830152505050565b600061041061040b846103bd565b6103a2565b90508281526020810184848401111561042c5761042b61032c565b5b6104378482856103ee565b509392505050565b600082601f83011261045457610453610327565b5b81356104648482602086016103fd565b91505092915050565b610476816102df565b811461048157600080fd5b50565b6000813590506104938161046d565b92915050565b6000806000606084860312156104b2576104b161031d565b5b600084013567ffffffffffffffff8111156104d0576104cf610322565b5b6104dc8682870161043f565b935050602084013567ffffffffffffffff8111156104fd576104fc610322565b5b6105098682870161043f565b925050604061051a86828701610484565b9150509250925092565b60006020828403121561053a5761053961031d565b5b600061054884828501610484565b91505092915050565b600081519050919050565b600082825260208201905092915050565b60005b8381101561058b578082015181840152602081019050610570565b60008484015250505050565b60006105a282610551565b6105ac818561055c565b93506105bc81856020860161056d565b6105c581610331565b840191505092915050565b600060808201905081810360008301526105ea8187610597565b905081810360208301526105fe8186610597565b905061060d60408301856102e9565b61061a60608301846102e9565b95945050505050565b7f4e487b7100000000000000000000000000000000000000000000000000000000600052602260045260246000fd5b6000600282049050600182168061066a57607f821691505b60208210810361067d5761067c610623565b5b50919050565b60008190508160005260206000209050919050565b60006020601f8301049050919050565b600082821b905092915050565b6000600883026106e57fffffffffffffffffffffffffffffffffffffffffffffffffffffffffffffffff826106a8565b6106ef86836106a8565b95508019841693508086168417925050509392505050565b6000819050919050565b600061072c610727610722846102df565b610707565b6102df565b9050919050565b6000819050919050565b61074683610711565b61075a61075282610733565b8484546106b5565b825550505050565b600090565b61076f610762565b61077a81848461073d565b505050565b5b8181101561079e57610793600082610767565b600181019050610780565b5050565b601f8211156107e3576107b481610683565b6107bd84610698565b810160208510156107cc578190505b6107e06107d885610698565b83018261077f565b50505b505050565b600082821c905092915050565b6000610806600019846008026107e8565b1980831691505092915050565b600061081f83836107f5565b9150826002028217905092915050565b61083882610551565b67ffffffffffffffff81111561085157610850610342565b5b61085b8254610652565b6108668282856107a2565b600060209050601f8311600181146108995760008415610887578287015190505b6108918582610813565b8655506108f9565b601f1984166108a786610683565b60005b828110156108cf578489015182556001820191506020850194506020810190506108aa565b868310156108ec57848901516108e8601f8916826107f5565b8355505b6001600288020188555050505b50505050505056fea2646970667358221220df61b579d1806e0d56a74c75f106ed6fb1e46adc3d695ee26b08f93e65dbeb1564736f6c63430008180033",
  "linkReferences": {},
  "deployedLinkReferences": {}
}